{
  "contractName": "Todo",
  "abi": [
    {
      "constant": true,
      "inputs": [
        {
          "internalType": "uint256",
          "name": "",
          "type": "uint256"
        }
      ],
      "name": "todoItemIDs",
      "outputs": [
        {
          "internalType": "uint256",
          "name": "",
          "type": "uint256"
        }
      ],
      "payable": false,
      "stateMutability": "view",
      "type": "function"
    },
    {
      "constant": true,
      "inputs": [],
      "name": "getTodos",
      "outputs": [
        {
          "components": [
            {
              "internalType": "uint256",
              "name": "id",
              "type": "uint256"
            },
            {
              "internalType": "string",
              "name": "content",
              "type": "string"
            },
            {
              "internalType": "bool",
              "name": "done",
              "type": "bool"
            }
          ],
          "internalType": "struct Todo.todoItem[]",
          "name": "",
          "type": "tuple[]"
        }
      ],
      "payable": false,
      "stateMutability": "view",
      "type": "function"
    },
    {
      "constant": false,
      "inputs": [
        {
          "internalType": "string",
          "name": "content",
          "type": "string"
        }
      ],
      "name": "addTodo",
      "outputs": [],
      "payable": false,
      "stateMutability": "nonpayable",
      "type": "function"
    },
    {
      "constant": false,
      "inputs": [
        {
          "internalType": "uint256",
          "name": "id",
          "type": "uint256"
        }
      ],
      "name": "deleteTodo",
      "outputs": [],
      "payable": false,
      "stateMutability": "nonpayable",
      "type": "function"
    },
    {
      "constant": false,
      "inputs": [
        {
          "internalType": "uint256",
          "name": "id",
          "type": "uint256"
        }
      ],
      "name": "toggleTodo",
      "outputs": [],
      "payable": false,
      "stateMutability": "nonpayable",
      "type": "function"
    }
  ],
  "bytecode": "0x608060405234801561001057600080fd5b50610973806100206000396000f3fe608060405234801561001057600080fd5b50600436106100575760003560e01c806349d331431461005c5780636e3c67381461008c57806395ffebf5146100a8578063c33926cb146100c4578063dc00282c146100e2575b600080fd5b6100766004803603610071919081019061065d565b6100fe565b60405161008391906107e7565b60405180910390f35b6100a660048036036100a1919081019061065d565b61011f565b005b6100c260048036036100bd919081019061061c565b610164565b005b6100cc6101f4565b6040516100d991906107c5565b60405180910390f35b6100fc60048036036100f7919081019061065d565b61035d565b005b6000818154811061010b57fe5b906000526020600020016000915090505481565b6001600082815260200190815260200160002060008082016000905560018201600061014b919061041c565b6002820160006101000a81549060ff0219169055505050565b6000808054905090506000600160008381526020019081526020016000209050818160000181905550828160010190805190602001906101a5929190610464565b5060008160020160006101000a81548160ff0219169083151502179055506000829080600181540180825580915050906001820390600052602060002001600090919290919091505550505050565b60608060008054905060405190808252806020026020018201604052801561023657816020015b6102236104e4565b81526020019060019003908161021b5790505b50905060008090505b600080549050811015610355576001600082815260200190815260200160002060405180606001604052908160008201548152602001600182018054600181600116156101000203166002900480601f01602080910402602001604051908101604052809291908181526020018280546001816001161561010002031660029004801561030d5780601f106102e25761010080835404028352916020019161030d565b820191906000526020600020905b8154815290600101906020018083116102f057829003601f168201915b505050505081526020016002820160009054906101000a900460ff16151515158152505082828151811061033d57fe5b6020026020010181905250808060010191505061023f565b508091505090565b60006001600083815260200190815260200160002090508060020160009054906101000a900460ff16158160020160006101000a81548160ff021916908315150217905550806001600084815260200190815260200160002060008201548160000155600182018160010190805460018160011615610100020316600290046103e7929190610507565b506002820160009054906101000a900460ff168160020160006101000a81548160ff0219169083151502179055509050505050565b50805460018160011615610100020316600290046000825580601f106104425750610461565b601f016020900490600052602060002090810190610460919061058e565b5b50565b828054600181600116156101000203166002900490600052602060002090601f016020900481019282601f106104a557805160ff19168380011785556104d3565b828001600101855582156104d3579182015b828111156104d25782518255916020019190600101906104b7565b5b5090506104e0919061058e565b5090565b604051806060016040528060008152602001606081526020016000151581525090565b828054600181600116156101000203166002900490600052602060002090601f016020900481019282601f10610540578054855561057d565b8280016001018555821561057d57600052602060002091601f016020900482015b8281111561057c578254825591600101919060010190610561565b5b50905061058a919061058e565b5090565b6105b091905b808211156105ac576000816000905550600101610594565b5090565b90565b600082601f8301126105c457600080fd5b81356105d76105d28261082f565b610802565b915080825260208301602083018583830111156105f357600080fd5b6105fe8382846108c6565b50505092915050565b60008135905061061681610919565b92915050565b60006020828403121561062e57600080fd5b600082013567ffffffffffffffff81111561064857600080fd5b610654848285016105b3565b91505092915050565b60006020828403121561066f57600080fd5b600061067d84828501610607565b91505092915050565b60006106928383610757565b905092915050565b60006106a58261086b565b6106af818561088e565b9350836020820285016106c18561085b565b8060005b858110156106fd57848403895281516106de8582610686565b94506106e983610881565b925060208a019950506001810190506106c5565b50829750879550505050505092915050565b610718816108b0565b82525050565b600061072982610876565b610733818561089f565b93506107438185602086016108d5565b61074c81610908565b840191505092915050565b600060608301600083015161076f60008601826107a7565b5060208301518482036020860152610787828261071e565b915050604083015161079c604086018261070f565b508091505092915050565b6107b0816108bc565b82525050565b6107bf816108bc565b82525050565b600060208201905081810360008301526107df818461069a565b905092915050565b60006020820190506107fc60008301846107b6565b92915050565b6000604051905081810181811067ffffffffffffffff8211171561082557600080fd5b8060405250919050565b600067ffffffffffffffff82111561084657600080fd5b601f19601f8301169050602081019050919050565b6000819050602082019050919050565b600081519050919050565b600081519050919050565b6000602082019050919050565b600082825260208201905092915050565b600082825260208201905092915050565b60008115159050919050565b6000819050919050565b82818337600083830152505050565b60005b838110156108f35780820151818401526020810190506108d8565b83811115610902576000848401525b50505050565b6000601f19601f8301169050919050565b610922816108bc565b811461092d57600080fd5b5056fea365627a7a72315820880cce73034b3a23937f092014cdd302ee5d724a1570c6665fd02fea029e64716c6578706572696d656e74616cf564736f6c63430005100040",
  "source": "pragma solidity ^0.5.0;\npragma experimental ABIEncoderV2;\n\ncontract Todo {\n\n  struct todoItem {\n    uint256 id;\n    string content;\n    bool done;\n  }\n\n  uint256[] public todoItemIDs;\n  mapping(uint256 => todoItem) todoItems;\n\n  function getTodos() public view returns (todoItem[] memory){\n    todoItem[] memory todos = new todoItem[](todoItemIDs.length);\n    for (uint i = 0; i < todoItemIDs.length; i++) {\n      todos[i] = todoItems[i];\n    }\n    return todos;\n  }\n\n  function addTodo(string memory content) public {\n    uint256 id = todoItemIDs.length;\n    todoItem storage newTodo = todoItems[id];\n    newTodo.id = id;\n    newTodo.content = content;\n    newTodo.done = false;\n    todoItemIDs.push(id);\n  }\n\n  function deleteTodo(uint256 id) public {\n    delete todoItems[id];\n  }\n\n  function toggleTodo(uint256 id) public {\n    todoItem storage updatedTodo = todoItems[id];\n    updatedTodo.done = !updatedTodo.done;\n    todoItems[id] = updatedTodo;\n  }\n\n}\n",
  "sourcePath": "/home/do/Desktop/Desktop/dev-learn/blockchain/dapps/the-todo-dapp/contracts/Todo.sol",
  "compiler": {
    "name": "solc",
    "version": "0.5.16+commit.9c3226ce.Emscripten.clang"
  },
  "schemaVersion": "3.2.3",
  "updatedAt": "2020-08-12T14:20:09.697Z",
  "networkType": "ethereum",
  "devdoc": {
    "methods": {}
  },
  "userdoc": {
    "methods": {}
  }
}